:020000040800F2
:1000000000000320011900085118000853180008C7
:10001000551800085718000859180008000000007B
:100020000000000000000000000000005B18000855
:100030005D180008000000005F1800086118000843
:1000400051190008511900085119000851190008E8
:1000500051190008511900085119000851190008D8
:1000600051190008511900085119000851190008C8
:1000700051190008511900085119000851190008B8
:1000800051190008511900085119000851190008A8
:100090005119000851190008511900085119000898
:1000A0005119000851190008511900085119000888
:1000B0005119000851190008511900085119000878
:1000C0005119000851190008511900085119000868
:1000D0005119000851190008511900085119000858
:1000E0005119000851190008511900085119000848
:1000F0005119000851190008511900085119000838
:100100005119000851190008511900085119000827
:100110005119000851190008651800085119000804
:100120005119000851190008511900085119000807
:1001300051190008511900085119000851190008F7
:1001400051190008511900085119000851190008E7
:1001500051190008511900085119000851190008D7
:1001600051190008511900085119000851190008C7
:100170005119000851190008511900080000000029
:1001800051190008511900085119000851190008A7
:100190005119000851190008511900085119000897
:0C01A000511900085119000851190008FD
:1001AC0010B5054C237833B9044B13B10448AFF3A5
:1001BC0000800123237010BD0C0000200000000003
:1001CC00AC19000808B5034B1BB103490348AFF346
:1001DC00008008BD0000000010000020AC190008D1
:1001EC0053B94AB9002908BF00281CBF4FF0FF3192
:1001FC004FF0FF3000F07AB9ADF1080C6DE904CE88
:10020C0000F006F8DDF804E0DDE9022304B07047E5
:10021C002DE9F0478C460D460446089E002B51D123
:10022C008A4217466DD9B2FA82FEBEF1000F0BD08E
:10023C00CEF1200C01FA0EF520FA0CFC02FA0EF7A6
:10024C004CEA050C00FA0EF44FEA174A250CBCFBDD
:10025C00FAF81FFA87F90AFB18CC45EA0C4508FB9B
:10026C0009F3AB420AD9ED1908F1FF3280F0238172
:10027C00AB4240F22081A8F102083D44ED1AA4B231
:10028C00B5FBFAF00AFB105544EA054400FB09F9EA
:10029C00A14509D9E41900F1FF3380F00A81A14589
:1002AC0040F2078102383C44A4EB090440EA0840C0
:1002BC000021002E61D024FA0EF400233460736008
:1002CC00BDE8F0878B4207D9002E54D0002186E878
:1002DC0021000846BDE8F087B3FA83F1002940F00D
:1002EC008E80AB4202D3824200F2FA80841A65EB14
:1002FC0003050120AC46002E3FD086E81010BDE867
:10030C00F08712B90127B7FBF2F7B7FA87FEBEF1F7
:10031C00000F34D1EB1B3A0C1FFA87FC0121B3FB05
:10032C00F2F8250C02FB183345EA03450CFB08F3E5
:10033C00AB4207D9ED1908F1FF3002D2AB4200F203
:10034C00D1808046ED1AA3B2B5FBF2F002FB10553A
:10035C0043EA05440CFB00FCA44507D9E41900F161
:10036C00FF3302D2A44500F2B8801846A4EB0C046B
:10037C0040EA08409DE731463046BDE8F087CEF1B3
:10038C00200405FA0EF307FA0EF720FA04F83A0CDB
:10039C0025FA04F448EA0308B4FBF2F14FEA1845D5
:1003AC0002FB11441FFA87FC45EA044501FB0CF3E0
:1003BC00AB4200FA0EF409D9ED1901F1FF3080F0CF
:1003CC008A80AB4240F2878002393D44EB1A1FFA17
:1003DC0088F5B3FBF2F002FB103345EA034500FB52
:1003EC000CF3AB4207D9ED1900F1FF386FD2AB42D9
:1003FC006DD902383D44EB1A40EA01418FE7C1F157
:10040C00200722FA07F88B4005FA01F448EA0303A7
:10041C0020FA07FE4FEA134CFD404EEA040EB5FBE2
:10042C00FCF94FEA1E440CFB19551FFA83F844EAF9
:10043C00054509FB08F4AC4202FA01F200FA01FA94
:10044C0008D9ED1809F1FF3043D2AC4241D9A9F1DA
:10045C0002091D442D1B1FFA8EFEB5FBFCF00CFB94
:10046C0010554EEA054400FB08F8A04507D9E418DE
:10047C0000F1FF3529D2A04527D902381C4440EAA7
:10048C000940A4EB0804A0FB02894C45C6464D4626
:10049C0015D312D056B1BAEB0E0364EB050404FA73
:1004AC0007F7CB401F43CC40376074600021BDE898
:1004BC00F0871846F8E69046E0E6C245EAD2B8EB7B
:1004CC00020E69EB03050138E4E72846D7E74046FE
:1004DC0091E78146BEE7014678E702383C4445E7A0
:1004EC00084608E7A8F102083D442BE7704700BF17
:1004FC0038B50E4A0E4B054618784FF47A73B3FB99
:10050C00F0F31068B0FBF3F000F0C6FA044658B9EB
:10051C000F2D09D8024629464FF0FF3000F07AFA29
:10052C00044B20461D6038BD012038BD080000205A
:10053C00000000200400002008B50B4B1A6842F4A0
:10054C0000721A601A6842F480621A601A6842F4E7
:10055C0080721A60032000F04BFA0020FFF7C8FFEE
:10056C0001F0E6F8002008BD003C0240034A044BB1
:10057C0011681B780B441360704700BF2C000020DF
:10058C0000000020014B1868704700BF2C000020B1
:10059C0038B50446002800F09B80056C25B901F0A5
:1005AC00E3F8656484F83C50236CDB0600F18E8024
:1005BC00236C23F4885323F0020343F002032364D7
:1005CC00444B5A6822F440325A605A6861680A43B4
:1005DC005A60236821695A6822F480725A605A68FA
:1005EC0042EA01225A605A68A16822F040725A60AD
:1005FC005A680A435A609A68E16822F400629A6069
:10060C009A680A439A603449A26A8A4252D099681D
:10061C0021F07061996099680A439A609A68E16A5E
:10062C0022F040529A609A680A439A609A68217E36
:10063C0022F002029A609A6842EA41029A6094F8A7
:10064C002020002A3ED05A68616A42F400625A6047
:10065C005A6822F460425A605A68013942EA4132BF
:10066C005A60DA6AE16922F47002DA62DA6A0139F4
:10067C0042EA0152DA629A6894F8301022F400725D
:10068C009A609A6842EA41229A609A68616922F4F7
:10069C0080629A609A68002042EA81229A606064C3
:1006AC00236C23F0030343F001032364002384F839
:1006BC003C3038BD9A6822F070629A609A6822F0D9
:1006CC004052B2E75A6822F40062C9E70120EDE714
:1006DC00012038BD002301400100000F82B000232F
:1006EC00019390F83C30012B61D0012380F83C3011
:1006FC0003689A68D10705D59A68D20714D40020EC
:10070C0002B070479A682B4942F001029A602A4A5B
:10071C001268B2FBF1F202EB42020192019A002A3A
:10072C00EAD0019A013AF8E7026C22F4E06222F076
:10073C00010242F4807202645A68510541BF026C96
:10074C0022F4405242F480520264026C12F4805241
:10075C001CBF426C22F006024264002280F83C204E
:10076C006FF022021A60154A516811F01F0F1449DC
:10077C001AD18B4206D001F580718B420BD1526895
:10078C00D206BCD1986810F04050B8D19A6842F0AB
:10079C0080429A60B4E70B498B42B0D1526802F0A8
:1007AC001F020F2AEED9AAE78B42A8D1EAE7022052
:1007BC00A6E700BF40420F000800002000230140C4
:1007CC00002001400022014090F83C30012B17D052
:1007DC00012380F83C3003689A6822F001029A6089
:1007EC009B68DB0707D4036C23F4885323F00103C5
:1007FC0043F001030364002380F83C301846704733
:10080C000220704703689A6870B5560504460D4679
:10081C000BD59B68D80508D5236C43F020032364C3
:10082C00002384F83C30012070BDFFF7ABFE064678
:10083C0023681A6892070CD56FF012021A60226CAA
:10084C0042F4007222649A6812F0405F13D00020C8
:10085C0070BD691CEDD045B9236C43F004032364CF
:10086C00002384F83C30032070BDFFF78BFE801B07
:10087C008542DDD2F0E7227E002AE8D1DA6A12F452
:10088C00700F02D09B685B05E1D4236C23F480735A
:10089C002364206C10F48050D9D1236C43F00103F5
:1008AC00236470BD0368D86C70470000F7B5002353
:1008BC00019390F83C30012B6ED00D6804688A6867
:1008CC000123092D80F83C30AEB22AD906EB460341
:1008DC00E7681E3B4FF0070E0EFA03FE27EA0E07E1
:1008EC00E760E76802FA03F33B43E3604A68062AD1
:1008FC004FEA820325D81344676B591F1F238B4083
:10090C0027EA03036363626B06FA01F11143616327
:10091C00324B9C4234D0002380F83C30184603B054
:10092C00F0BD276905EB45034FF0070E0EFA03FEE9
:10093C0027EA0E072761276902FA03F33B43236179
:10094C00D4E70C2A0ED81344216BA3F123021F23E6
:10095C00934021EA03032363236B06FA02F21A4342
:10096C002263D5E71344E16A413B1F229A4021EAF6
:10097C000202E262E26A06FA03F11143E162C7E79E
:10098C00122D0BD1164B5A6822F400025A605A6889
:10099C0042F480025A60BEE70220C0E7114B9D4230
:1009AC0001D0112DB7D10E4B5A6822F480025A6037
:1009BC005A6842F400025A600A4B9D42ABD10A4B72
:1009CC000A4A1B68B3FBF2F20A2353430193019BBF
:1009DC00002BA0D0019B013BF8E700BF0020014099
:1009EC0000230140120000100800002040420F00BC
:1009FC00074AD36823F4E0631B041B0C43F0BF636A
:100A0C00000243F4003300F4E0600343D36070470A
:100A1C0000ED00E0174B30B5DC68C4F30224C4F1E0
:100A2C000703251D042B28BF0423062D4FF00105B9
:100A3C0005FA03F303F1FF338CBF033C0024194088
:100A4C00A14005FA04F4013C2240002842EA0102CC
:100A5C004FEA0212ADBF00F1604000F00F00064BF0
:100A6C0000F56140B5BFD2B2D2B21A5480F800235F
:100A7C0030BD00BF00ED00E014ED00E0002808DB05
:100A8C004209012300F01F0003FA00F0014B43F868
:100A9C002200704700E100E00138B0F1807F0AD2FB
:100AAC00064B074A5860F02182F8231000200722D9
:100ABC0098601A6070470120704700BF10E000E09A
:100ACC0000ED00E02DE9F04F85B00B68DFF8C48134
:100ADC006E4ADFF8C491019300230124019D9C40D0
:100AEC002540AC4240F0B8804C6824F0100C0CF15E
:100AFC00FF36012E4FEA430E12D88768032606FAFA
:100B0C000EF627EA0607CE6806FA0EF63E43866016
:100B1C004768C4F3001627EA05079E403E4346602B
:100B2C000326C76806FA0EF6F64307EA060A8F682C
:100B3C0007FA0EF747EA0A07BCF1020FC76016D195
:100B4C004FEAD30A00EB8A0A03F0070BDAF820709D
:100B5C004FEA8B0B4FF00F0C0CFA0BFC27EA0C0C2A
:100B6C000F6907FA0BF747EA0C07CAF820700768F9
:100B7C003E4004F0030707FA0EFE4EEA0606066036
:100B8C00E60069D54FF0000BCDF80CB0D8F84470E6
:100B9C003F4E47F48047C8F84470D8F8447007F4C7
:100BAC0080470397039F23F0030707F1804707F55E
:100BBC009C3703F0030CD7F808A04FEA8C0C4FF0CD
:100BCC000F0E0EFA0CFEB0422AEA0E0E4BD006F5B2
:100BDC008066B04249D006F58066B04247D006F533
:100BEC008066B04245D006F58066B04243D0484599
:100BFC0043D006F50066B04241D006F58066B0429F
:100C0C003FD006F58066B0423DD006F58066B04216
:100C1C0014BF0A26092606FA0CF646EA0E06BE6032
:100C2C001668EF4314F4803F0CBF3E402E43166011
:100C3C00566814F4003F0CBF3E402E435660966835
:100C4C0014F4801F0CBF3E402E439660D668A4025D
:100C5C0054BF3E402E43D6600133102B7FF43DAF82
:100C6C0005B0BDE8F08F5E46D5E70126D3E7022636
:100C7C00D1E70326CFE70426CDE70526CBE70626EA
:100C8C00C9E70726C7E70826C5E700BF003C0140B7
:100C9C00000002400038024000140240436931EA6F
:100CAC00030308BF090481617047000037B50023B6
:100CBC000193184B184C1A6C42F080521A641B6C3E
:100CCC0003F080530193019B144B01221A60FFF730
:100CDC0059FC05466368DA030BD5114B0E4C012207
:100CEC001A60FFF74FFC054663689B030AD500208A
:100CFC0006E0FFF747FC401BB0F57A7FEAD90320EA
:100D0C0003B030BDFFF73EFC401BB0F57A7FEBD94A
:100D1C00F5E700BF003802400070004040000E4272
:100D2C0044000E422DE9F341044608B901203FE08E
:100D3C000368DD0710D4236898075AD423681A0770
:100D4C0000F19C8023685B0700F1BA80A069002841
:100D5C0040F01B8100202BE0A44B9A6802F00C029F
:100D6C00042A07D09A6802F00C02082A0AD15B68A0
:100D7C00590207D59D4B1B689A03DCD56368002B81
:100D8C00D9D1D3E76368994DB3F5803F13D12B6864
:100D9C0043F480332B60FFF7F5FB944D06462B682C
:100DAC009B03C8D4FFF7EEFB801B6428F7D9032004
:100DBC0002B0BDE8F081B3F5A02F04D12B6843F449
:100DCC0080232B60E3E72A6822F480322A602A68A9
:100DDC0022F480222A60002BDDD1FFF7D3FB0646DC
:100DEC002B689F03A7D5FFF7CDFB801B6428F7D991
:100DFC00DDE77E4B9A6812F00C0F07D09A6802F070
:100E0C000C02082A11D15B685E020ED4774B1A686B
:100E1C00950702D5E268012A88D11A68216922F067
:100E2C00F80242EAC1021A6088E7E268704BB2B17C
:100E3C0001221A60FFF7A6FB6C4D06462B6898073B
:100E4C0007D52B68226923F0F80343EAC2032B6011
:100E5C0074E7FFF797FB801B0228EFD9A7E71A600E
:100E6C00FFF790FB614D06462B6899077FF566AF3F
:100E7C00FFF788FB801B0228F6D998E762695D4B67
:100E8C007AB101221A60FFF77DFB584D06466B6F55
:100E9C009F073FF557AFFFF775FB801B0228F6D96C
:100EAC0085E71A60FFF76EFB504D06466B6F98078F
:100EBC007FF548AFFFF766FB801B0228F6D976E773
:100ECC004A4B1A6C12F0805228D101921A6C42F0E3
:100EDC0080521A641B6C03F080530193019B012612
:100EEC00454D2B68D9051BD5A368404D012B27D147
:100EFC002B6F43F001032B67FFF744FB3B4D074679
:100F0C0041F288382B6F9B0739D5002E3FF41EAF6A
:100F1C00364A136C23F08053136417E70026DFE77F
:100F2C002B6843F480732B60FFF72CFB07462B6870
:100F3C00DA05D9D4FFF726FBC01B0228F7D936E710
:100F4C00052B04D12B6F43F004032B67D0E72A6FDA
:100F5C0022F001022A672A6F22F004022A67002B72
:100F6C00CAD1FFF70FFB41F2883807462B6F980761
:100F7C00CBD5FFF707FBC01B4045F7D917E7FFF7A9
:100F8C0001FBC01B4045BDD911E7184DAB6803F000
:100F9C000C03082B47D0194E00230228336035D19F
:100FAC00FFF7F0FA07462B68990129D4226AE36906
:100FBC001343626A43EA8213E26A43EA0263A26A57
:100FCC000A4C5208013A43EA02436B600123336036
:100FDC00FFF7D8FA054623689A013FF5BBAEFFF739
:100FEC00D1FA401B0228F6D9E1E600BF00380240D6
:100FFC0000004742800E47420070004060004742AC
:10100C00FFF7C0FAC01B0228CDD9D0E6FFF7BAFA19
:10101C0004462B689B017FF59DAEFFF7B3FA001BCE
:10102C000228F6D9C3E601283FF4C2AEA868E369EA
:10103C0000F480029A427FF479AE226A00F03F03FA
:10104C0093427FF473AE626A47F6C07303409342D7
:10105C007FF46CAEA26A00F4403393427FF466AE28
:10106C00E36A00F07060C01A18BF0120A0E600BF50
:10107C00134908B58B6803F00C03042B03D0082B21
:10108C0003D0104808BD104808BD4A684B68496831
:10109C0013F4800314BF0C480A48C1F3881118BF1D
:1010AC00002302F03F02A1FB0001FFF799F8044B6B
:1010BC005B68C3F3014301335B00B0FBF3F008BD85
:1010CC00003802400024F40000127A002DE9F041AF
:1010DC000D46044610B90120BDE8F081444B1A6856
:1010EC0002F00F028A4229D321688F072ED4C80739
:1010FC0041D43F4B1A6802F00F02954267D3226825
:10110C0051076DD4130707D53A4A2169936823F424
:10111C00604343EAC1039360FFF7AAFF354B364A9D
:10112C009B68C3F30313D35CD840344B1860344B27
:10113C001868FFF7DDF90020BDE8F081CAB21A701B
:10114C001B6803F00F039942C5D1CDE7294B11F071
:10115C00040F1EBF9A6842F4E0529A600E0742BF19
:10116C009A6842F460429A609A68A06822F0F00291
:10117C0002439A60BBE762681E4B012A1DD11B68B3
:10118C0013F4003FA7D01B4EB36823F003031343A3
:10119C00B360FFF7F7F941F288380746B368626825
:1011AC0003F00C03B3EB820FA3D0FFF7EBF9C01BDA
:1011BC004045F3D90320BDE8F081911E01291B683D
:1011CC0002D813F0007FDDE713F0020FDAE7EAB282
:1011DC001A701B6803F00F039D427FF47CAF8EE7FF
:1011EC000449E0688B6823F4E05303438B6089E780
:1011FC00003C024000380240C419000808000020DE
:10120C00040000200368DA6842F00102DA609A6890
:10121C0002F00702062A1EBF1A6842F001021A6089
:10122C0000207047704770477047704703681A6911
:10123C00910710B504460ED5DA6892070BD56FF0FE
:10124C0002021A619B6901229B07027777D0FFF794
:10125C00EAFF0023237723681A69500710D5DA6850
:10126C0051070DD56FF004021A619B69022213F429
:10127C00407F2277204668D0FFF7D5FF00232377E5
:10128C0023681A6912070FD5DA6810070CD56FF0AE
:10129C0008021A61DB6904229907227720465AD08A
:1012AC00FFF7C1FF0023237723681A69D20610D5F4
:1012BC00DA68D0060DD56FF010021A61DB690822CE
:1012CC0013F4407F227720464BD0FFF7ACFF00236E
:1012DC00237723681A69D10708D5DA68D20705D5B0
:1012EC006FF001021A61204600F006F923681A69B2
:1012FC00100608D5DA68110605D56FF080021A6160
:10130C00204600F0F8F823681A69520608D5DA6806
:10131C00500605D56FF040021A612046FFF785FF95
:10132C0023681A69910622D5DA6892061FD56FF0E8
:10133C00200220461A61BDE8104000F0DBB8FFF730
:10134C0071FF2046FFF770FF83E7FFF76BFF204626
:10135C00FFF76AFF92E7FFF765FF2046FFF764FF90
:10136C00A0E7FFF75FFF2046FFF75EFFAFE710BD7A
:10137C00304A0368904212D0B0F1804F0FD0A2F5E2
:10138C007C4290420BD002F58062904207D002F56D
:10139C008062904203D002F57842904219D14A689B
:1013AC0023F070031343234A904229D0B0F1804FAD
:1013BC0026D0A2F57C42904222D002F58062904267
:1013CC001ED002F5806290421AD002F5784290420B
:1013DC0016D0194A904213D002F5806290420FD079
:1013EC0002F5806290420BD0A2F59832904207D061
:1013FC0002F58062904203D002F58062904203D1E4
:10140C00CA6823F4407313434A6923F080031343DF
:10141C0003608B68C3620B688362064B984203D0EF
:10142C0003F58063984201D10B6903630123436187
:10143C00704700BF000001400040014010B5044659
:10144C00A0B190F83D3003F0FF021BB980F83C20AE
:10145C0000F0DAF9022384F83D302068211DFFF7F3
:10146C0087FF012384F83D30002010BD012010BD02
:10147C0090F83C30012B30B54FF0020335D080F89A
:10148C003D3003680D685C6824F0700401222C4325
:10149C0080F83C209A685C60154CA3421AD0B3F1DA
:1014AC00804F17D0A4F57C44A34213D004F580647C
:1014BC00A3420FD004F58064A3420BD004F578440A
:1014CC00A34207D004F57054A34203D0A4F594347E
:1014DC00A34204D1496822F080020A439A60012396
:1014EC0080F83D30002380F83C30184630BD00BFFA
:1014FC00000001407047704738B5134C1348144D29
:10150C004FF48041FFF7CAFB2046FFF7E7F80121B3
:10151C002046FFF777F92046FFF7C4F928802046CC
:10152C00FFF752F92B889FED0B7ADFED0B6A07EE74
:10153C00903AF8EEE77A094B67EE877A87EEA67A4F
:10154C0083ED007A38BD00BF8000002000180240F7
:10155C003000002048E13A4000F07F452800002090
:10156C0030B595B03022002108A800F011FA002106
:10157C00142203A800F00CFA00241D4B01941A6CE1
:10158C0042F080521A641B6C03F080530193019B50
:10159C00184B02941A6842F440421A601B6803F418
:1015AC0040430293029B012308934FF48033099329
:1015BC004FF48003B42202250F9308A80423109340
:1015CC00119213930E951295FFF7ACFBFFF76EFB80
:1015DC000F2303934FF4A053069305214FF480532C
:1015EC0003A8049505940793FFF770FD15B030BD63
:1015FC000038024000700040BFB5434E434DDFF849
:10160C002C810024FEF798FFFFF7AAFF00F02AF9BF
:10161C0000F036F90094336B43F080033363336B83
:10162C0003F080030093009B0194336B43F004039D
:10163C003363336B03F0040310222146019302A899
:10164C00019B00F0A5F9324BAC6001274FF48039B7
:10165C00284685E808022C612C7685F82040EC623F
:10166C00C5F82880EC60EF6185F830406F61FEF7BB
:10167C008FFF0A2302A928460293264D0397049450
:10168C00FFF714F91022214602A800F081F9224B31
:10169C00AC60284685E808022C612C7685F8204041
:1016AC00EC62C5F82880EC60EF6185F830406F6122
:1016BC00FEF76EFF0B2302A928460293174D0397E2
:1016CC000494FFF7F3F8164A164B029485E80C00C5
:1016DC0028460323EB600394AC60AC61FFF7AEFECD
:1016EC00202302A9284602930394FFF7C1FE336B13
:1016FC000D4A43F040033363136843F08053136087
:10170C002846FFF77FFDFEE70038024080000020EE
:10171C00002001403400002000210140C8000020BE
:10172C0000100040905F0100001802400100000F03
:10173C0082B00C4B002100915A6C42F480425A64E6
:10174C005A6C02F480420092009A01911A6C42F099
:10175C0080521A641B6C03F080530193019B02B0FE
:10176C00704700BF0038024010B514228AB00446FE
:10177C0000210DEB020000F00BF923681E4A934286
:10178C001FD11E4B002101915A6C42F480725A6495
:10179C005A6C02F480720192019A02911A6B42F017
:1017AC0004021A631B6B03F004030293029B0123D4
:1017BC00059305A9032312480693FFF783F90AB092
:1017CC0010BD104A9342FAD10C4B002103915A6C74
:1017DC0042F400725A645A6C02F400720392039A37
:1017EC0004911A6B42F004021A631B6B03F004039E
:1017FC000493049B0223DBE70020014000380240E5
:10180C00000802400021014007B50D4B02689A42C6
:10181C0013D1002203F50A330192196C41F0100127
:10182C0019641B6C03F01003019336201146019BC5
:10183C00FFF7F0F83620FFF721F903B05DF804FB51
:10184C00001000407047FEE7FEE7FEE7FEE770473A
:10185C0070477047FEF78ABE0148FFF7E7BC00BF30
:10186C00C8000020054BD3F8882042F47002C3F85E
:10187C0088204FF000629A60704700BF00ED00E0D6
:10188C00174A1849936803F00C03042B10B50DD0BC
:10189C00082B0DD0144B0B60114B144A9B68C3F3EF
:1018AC000313D25C0B68D3400B6010BD104BF2E7F6
:1018BC005468506852686302C2F3881200F03F000B
:1018CC004CBF0B4B084BB3FBF0F35343044A526829
:1018DC00C2F3014201325200B3FBF2F3DBE700BF6B
:1018EC0000380240080000200024F400C41900084D
:1018FC0000127A00DFF834D0002103E00C4B5B5867
:10190C00435004310B480C4B42189A42F6D30B4A05
:10191C0002E0002342F8043B094B9A42F9D3FFF74B
:10192C00A1FF00F011F8FFF767FE704700000320DD
:10193C00E4190008000000200C0000200C0000201E
:10194C0008010020FEE7000070B50D4E0D4CA41BE5
:10195C00A4100025A54209D10B4E0C4C00F020F828
:10196C00A41BA4100025A54205D170BD56F8253046
:10197C0098470135EEE756F8253098470135F2E7E0
:10198C00DC190008DC190008DC190008E019000853
:10199C0002440346934200D1704703F8011BF9E758
:1019AC00F8B500BFF8BC08BC9E467047F8B500BF40
:0819BC00F8BC08BC9E46704710
:1019C40000000000000000000102030406070809EB
:0819D40048E8FF7F010000005C
:0419DC00D10100082D
:0419E000AD0100084D
:0C19E40001000000100000000024F400CE
:0400000508001901D5
:00000001FF
