:020000040800F2
:100000000000032085250008D5240008D724000817
:10001000D9240008DB240008DD24000800000000CB
:10002000000000000000000000000000DF240008C5
:10003000E124000800000000E3240008E524000893
:10004000D5250008D5250008D5250008D5250008A8
:10005000D5250008D5250008D5250008D525000898
:10006000D5250008D5250008D5250008D525000888
:10007000D5250008D5250008D5250008D525000878
:10008000D5250008D5250008D5250008D525000868
:10009000D5250008D5250008D5250008D525000858
:1000A000D5250008D5250008D5250008D525000848
:1000B000D5250008D5250008D5250008D525000838
:1000C000D5250008D5250008D5250008D525000828
:1000D000D5250008D5250008D5250008D525000818
:1000E000D5250008D5250008D5250008D525000808
:1000F000D5250008D5250008D5250008D5250008F8
:10010000D5250008D5250008D5250008D5250008E7
:10011000D5250008D5250008E9240008D5250008C4
:10012000D5250008D5250008D5250008D5250008C7
:10013000D5250008D5250008D5250008D5250008B7
:10014000D5250008D5250008D5250008D5250008A7
:10015000D5250008D5250008D5250008D525000897
:10016000D5250008D5250008D5250008D525000887
:10017000D5250008D5250008D52500080000000079
:10018000D5250008D5250008D5250008D525000867
:10019000D5250008D5250008D5250008D525000857
:0C01A000D5250008D5250008D52500084D
:1001B00010B5054C237833B9044B13B10448AFF3A1
:1001C00000800123237010BD740000200000000097
:1001D0000837000808B5034B1BB103490348AFF3C8
:1001E000008008BD000000007800002008370008EB
:1001F00081F0004102E000BF83F0004330B54FEAD8
:1002000041044FEA430594EA050F08BF90EA020F44
:100210001FBF54EA000C55EA020C7FEA645C7FEAD7
:10022000655C00F0E2804FEA5454D4EB5555B8BFFA
:100230006D420CDD2C4480EA020281EA030382EA6B
:10024000000083EA010180EA020281EA0303362DFD
:1002500088BF30BD11F0004F4FEA01314FF4801CD0
:100260004CEA113102D0404261EB410113F0004FE2
:100270004FEA03334CEA133302D0524263EB430399
:1002800094EA050F00F0A780A4F10104D5F1200E37
:100290000DDB02FA0EFC22FA05F2801841F1000192
:1002A00003FA0EF2801843FA05F359410EE0A5F166
:1002B00020050EF1200E012A03FA0EFC28BF4CF097
:1002C000020C43FA05F3C01851EBE37101F000454D
:1002D00007D54FF0000EDCF1000C7EEB00006EEB5A
:1002E0000101B1F5801F1BD3B1F5001F0CD34908E4
:1002F0005FEA30004FEA3C0C04F101044FEA44523B
:1003000012F5800F80F09A80BCF1004F08BF5FEAC1
:10031000500C50F1000041EB045141EA050130BDA1
:100320005FEA4C0C404141EB010111F4801FA4F144
:100330000104E9D191F0000F04BF01460020B1FA99
:1003400081F308BF2033A3F10B03B3F120020CDAD1
:100350000C3208DD02F1140CC2F10C0201FA0CF0AF
:1003600021FA02F10CE002F11402D8BFC2F1200C14
:1003700001FA02F120FA0CFCDCBF41EA0C019040CA
:10038000E41AA2BF01EB0451294330BD6FEA040413
:100390001F3C1CDA0C340EDC04F11404C4F12002FE
:1003A00020FA04F001FA02F340EA030021FA04F310
:1003B00045EA030130BDC4F10C04C4F1200220FA67
:1003C00002F001FA04F340EA0300294630BD21FAA5
:1003D00004F0294630BD94F0000F83F4801306BF6B
:1003E00081F480110134013D4EE77FEA645C18BF5F
:1003F0007FEA655C29D094EA050F08BF90EA020FF6
:1004000005D054EA000C04BF1946104630BD91EAED
:10041000030F1EBF0021002030BD5FEA545C05D1F0
:100420004000494128BF41F0004130BD14F580042F
:100430003CBF01F5801130BD01F0004545F0FE41A3
:1004400041F470014FF0000030BD7FEA645C1ABFD8
:10045000194610467FEA655C1CBF0B46024650EA0F
:10046000013406BF52EA033591EA030F41F400213B
:1004700030BD00BF90F0000F04BF0021704730B5C1
:100480004FF4806404F132044FF000054FF0000196
:1004900050E700BF90F0000F04BF0021704730B557
:1004A0004FF4806404F1320410F0004548BF40422C
:1004B0004FF000013EE700BF42004FEAE2014FEA81
:1004C00031014FEA02701FBF12F07F4393F07F4F5C
:1004D00081F06051704792F0000F14BF93F07F4F8E
:1004E000704730B54FF4607401F0004521F00041D1
:1004F00020E700BF50EA010208BF704730B54FF057
:1005000000050AE050EA010208BF704730B511F05B
:10051000004502D5404261EB41014FF4806404F193
:1005200032045FEA915C3FF4DCAE4FF003025FEA15
:10053000DC0C18BF03325FEADC0C18BF033202EB9D
:10054000DC02C2F1200300FA03FC20FA02F001FAF7
:1005500003FE40EA0E0021FA02F11444C1E600BF96
:1005600070B54FF0FF0C4CF4E06C1CEA11541DBF49
:100570001CEA135594EA0C0F95EA0C0F00F0DEF814
:100580002C4481EA030621EA4C5123EA4C5350EAF9
:10059000013518BF52EA033541F4801143F480134A
:1005A00038D0A0FB02CE4FF00005E1FB02E506F0DB
:1005B0000042E0FB03E54FF00006E1FB03569CF030
:1005C000000F18BF4EF0010EA4F1FF04B6F5007F36
:1005D00064F5407404D25FEA4E0E6D4146EB0606A8
:1005E00042EAC62141EA55514FEAC52040EA5E5031
:1005F0004FEACE2EB4F1FD0C88BFBCF5E06F1ED8DB
:10060000BEF1004F08BF5FEA500E50F1000041EB11
:10061000045170BD06F0004646EA010140EA0200BE
:1006200081EA0301B4EB5C04C2BFD4EB0C0541EAE0
:10063000045170BD41F480114FF0000E013C00F3F5
:10064000AB8014F1360FDEBF002001F0004170BD19
:10065000C4F10004203C35DA0C341BDC04F1140432
:10066000C4F1200500FA05F320FA04F001FA05F2BE
:1006700040EA020001F0004221F0004110EBD3708B
:1006800021FA04F642EB06015EEA430E08BF20EAB7
:10069000D37070BDC4F10C04C4F1200500FA04F35A
:1006A00020FA05F001FA04F240EA020001F00041EC
:1006B00010EBD37041F100015EEA430E08BF20EA5F
:1006C000D37070BDC4F1200500FA05F24EEA020EA7
:1006D00020FA04F301FA05F243EA020321FA04F0D6
:1006E00001F0004121FA04F220EA020000EBD3708D
:1006F0005EEA430E08BF20EAD37070BD94F0000F8D
:100700000FD101F00046400041EB010111F4801FC0
:1007100008BF013CF7D041EA060195F0000F18BF71
:10072000704703F00046520043EB030313F4801FAD
:1007300008BF013DF7D043EA0603704794EA0C0F67
:100740000CEA135518BF95EA0C0F0CD050EA41067D
:1007500018BF52EA4306D1D181EA030101F00041FA
:100760004FF0000070BD50EA410606BF1046194622
:1007700052EA430619D094EA0C0F02D150EA01362E
:1007800013D195EA0C0F05D152EA03361CBF10466F
:1007900019460AD181EA030101F0004141F0FE410E
:1007A00041F470014FF0000070BD41F0FE4141F492
:1007B000780170BD70B54FF0FF0C4CF4E06C1CEA92
:1007C00011541DBF1CEA135594EA0C0F95EA0C0F47
:1007D00000F0A7F8A4EB050481EA030E52EA033502
:1007E0004FEA013100F088804FEA03334FF0805523
:1007F00045EA131343EA12634FEA022245EA111550
:1008000045EA10654FEA00260EF000419D4208BF00
:10081000964244F1FD0404F5407402D25B084FEAAD
:100820003202B61A65EB03055B084FEA32024FF459
:1008300080104FF4002CB6EB020E75EB030E22BFB6
:10084000B61A754640EA0C005B084FEA3202B6EB76
:10085000020E75EB030E22BFB61A754640EA5C0025
:100860005B084FEA3202B6EB020E75EB030E22BFB5
:10087000B61A754640EA9C005B084FEA3202B6EBB6
:10088000020E75EB030E22BFB61A754640EADC0075
:1008900055EA060E18D04FEA051545EA16754FEAD7
:1008A00006164FEAC30343EA52734FEAC2025FEAF5
:1008B0001C1CC0D111F4801F0BD141EA00014FF084
:1008C00000004FF0004CB6E711F4801F04BF014355
:1008D0000020B4F1FD0C88BFBCF5E06F3FF6AFAE71
:1008E000B5EB030C04BFB6EB020C5FEA500C50F101
:1008F000000041EB045170BD0EF0004E4EEA113184
:1009000014EB5C04C2BFD4EB0C0541EA045170BD8A
:1009100041F480114FF0000E013C90E645EA060ECE
:100920008DE60CEA135594EA0C0F08BF95EA0C0FFC
:100930003FF43BAF94EA0C0F0AD150EA01347FF444
:1009400034AF95EA0C0F7FF425AF104619462CE71B
:1009500095EA0C0F06D152EA03353FF4FDAE10467E
:10096000194622E750EA410618BF52EA43067FF4CF
:10097000C5AE50EA41047FF40DAF52EA43057FF45F
:10098000EBAE12E74FF0FF3C06E000BF4FF0010C6A
:1009900002E000BF4FF0010C4DF804CD4FEA410CCE
:1009A0007FEA6C5C4FEA430C18BF7FEA6C5C1BD09B
:1009B00001B050EA410C0CBF52EA430C91EA030F1C
:1009C00002BF90EA020F0020704710F1000F91EA79
:1009D000030F58BF994208BF90422CBFD8176FEA47
:1009E000E37040F0010070474FEA410C7FEA6C5C15
:1009F00002D150EA013C07D14FEA430C7FEA6C5C1C
:100A0000D6D152EA033CD3D05DF8040B704700BF47
:100A10008446104662468C461946634600E000BF95
:100A200001B5FFF7B7FF002848BF10F1000F01BD67
:100A30004DF808EDFFF7F4FF0CBF012000205DF832
:100A400008FB00BF4DF808EDFFF7EAFF34BF0120B7
:100A500000205DF808FB00BF4DF808EDFFF7E0FF50
:100A600094BF012000205DF808FB00BF4DF808EDA1
:100A7000FFF7CEFF94BF012000205DF808FB00BF08
:100A80004DF808EDFFF7C4FF34BF012000205DF8EA
:100A900008FB00BF4FEA410C7FEA6C5C02D150EAD0
:100AA000013C0AD14FEA430C7FEA6C5C02D152EA66
:100AB000033C02D14FF0000070474FF00100704737
:100AC0004FEA4102B2F1E04324BFB3F5001CDCF170
:100AD000FE5C0DD901F0004C4FEAC0024CEA5070A8
:100AE000B2F1004F40EB830008BF20F001007047D7
:100AF00011F0804F21D113F13872BCBF01F00040DA
:100B0000704741F480114FEA5252C2F11802C2F10B
:100B1000200C10FA0CF320FA02F018BF40F001008C
:100B20004FEAC1234FEAD32303FA0CFC40EA0C003E
:100B300023FA02F34FEA4303CCE77FEA625307D17B
:100B400050EA01331EBF4FF0FE4040F440007047B2
:100B500001F0004040F0FE4040F40000704700BF4C
:100B600053B94AB9002908BF00281CBF4FF0FF3114
:100B70004FF0FF3000F07AB9ADF1080C6DE904CE0A
:100B800000F006F8DDF804E0DDE9022304B0704768
:100B90002DE9F0478C460D460446089E002B51D1A6
:100BA0008A4217466DD9B2FA82FEBEF1000F0BD011
:100BB000CEF1200C01FA0EF520FA0CFC02FA0EF729
:100BC0004CEA050C00FA0EF44FEA174A250CBCFB60
:100BD000FAF81FFA87F90AFB18CC45EA0C4508FB1E
:100BE00009F3AB420AD9ED1908F1FF3280F02381F5
:100BF000AB4240F22081A8F102083D44ED1AA4B2B4
:100C0000B5FBFAF00AFB105544EA054400FB09F96C
:100C1000A14509D9E41900F1FF3380F00A81A1450B
:100C200040F2078102383C44A4EB090440EA084042
:100C30000021002E61D024FA0EF40023346073608A
:100C4000BDE8F0878B4207D9002E54D0002186E8FA
:100C500021000846BDE8F087B3FA83F1002940F08F
:100C60008E80AB4202D3824200F2FA80841A65EB96
:100C700003050120AC46002E3FD086E81010BDE8E9
:100C8000F08712B90127B7FBF2F7B7FA87FEBEF17A
:100C9000000F34D1EB1B3A0C1FFA87FC0121B3FB88
:100CA000F2F8250C02FB183345EA03450CFB08F368
:100CB000AB4207D9ED1908F1FF3002D2AB4200F286
:100CC000D1808046ED1AA3B2B5FBF2F002FB1055BD
:100CD00043EA05440CFB00FCA44507D9E41900F1E4
:100CE000FF3302D2A44500F2B8801846A4EB0C04EE
:100CF00040EA08409DE731463046BDE8F087CEF136
:100D0000200405FA0EF307FA0EF720FA04F83A0C5D
:100D100025FA04F448EA0308B4FBF2F14FEA184557
:100D200002FB11441FFA87FC45EA044501FB0CF362
:100D3000AB4200FA0EF409D9ED1901F1FF3080F051
:100D40008A80AB4240F2878002393D44EB1A1FFA99
:100D500088F5B3FBF2F002FB103345EA034500FBD4
:100D60000CF3AB4207D9ED1900F1FF386FD2AB425B
:100D70006DD902383D44EB1A40EA01418FE7C1F1D9
:100D8000200722FA07F88B4005FA01F448EA03032A
:100D900020FA07FE4FEA134CFD404EEA040EB5FB65
:100DA000FCF94FEA1E440CFB19551FFA83F844EA7C
:100DB000054509FB08F4AC4202FA01F200FA01FA17
:100DC00008D9ED1809F1FF3043D2AC4241D9A9F15D
:100DD00002091D442D1B1FFA8EFEB5FBFCF00CFB17
:100DE00010554EEA054400FB08F8A04507D9E41861
:100DF00000F1FF3529D2A04527D902381C4440EA2A
:100E00000940A4EB0804A0FB02894C45C6464D46A8
:100E100015D312D056B1BAEB0E0364EB050404FAF5
:100E200007F7CB401F43CC40376074600021BDE81A
:100E3000F0871846F8E69046E0E6C245EAD2B8EBFD
:100E4000020E69EB03050138E4E72846D7E7404680
:100E500091E78146BEE7014678E702383C4445E722
:100E6000084608E7A8F102083D442BE7704700BF99
:100E700038B50E4A0E4B054618784FF47A73B3FB1B
:100E8000F0F31068B0FBF3F000F0DAFA044658B95A
:100E90000F2D09D8024629464FF0FF3000F08EFA98
:100EA000044B20461D6038BD012038BD08000020DD
:100EB000000000200400002008B50B4B1A6842F423
:100EC00000721A601A6842F480621A601A6842F46A
:100ED00080721A60032000F05FFA0020FFF7C8FF5D
:100EE00001F06EFA002008BD003C0240034A044BAA
:100EF00011681B780B441360704700BF90000020FE
:100F000000000020014B1868704700BF90000020CF
:100F100038B50446FFF7F6FF631C1CBF054B1B7872
:100F2000054618BFE418FFF7EDFF401B8442FAD8CE
:100F300038BD00BF0000002038B50446002800F08E
:100F40009B80056C25B901F057FA656484F83C5024
:100F5000236CDB0600F18E80236C23F4885323F08E
:100F6000020343F002032364444B5A6822F44032E4
:100F70005A605A6861680A435A60236821695A684E
:100F800022F480725A605A6842EA01225A605A6812
:100F9000A16822F040725A605A680A435A609A68FF
:100FA000E16822F400629A609A680A439A603449C0
:100FB000A26A8A4252D0996821F07061996099685A
:100FC0000A439A609A68E16A22F040529A609A68ED
:100FD0000A439A609A68217E22F002029A609A6817
:100FE00042EA41029A6094F82020002A3ED05A68D2
:100FF000616A42F400625A605A6822F460425A60A0
:101000005A68013942EA41325A60DA6AE16922F4E7
:101010007002DA62DA6A013942EA0152DA629A68E7
:1010200094F8301022F400729A609A6842EA4122E1
:101030009A609A68616922F480629A609A680020D6
:1010400042EA81229A606064236C23F0030343F038
:1010500001032364002384F83C3038BD9A6822F0F1
:1010600070629A609A6822F04052B2E75A6822F49D
:101070000062C9E70120EDE7012038BD00230140EF
:101080000100000F82B00023019390F83C30012B47
:1010900061D0012380F83C3003689A68D10705D5F8
:1010A0009A68D20714D4002002B070479A682B497E
:1010B00042F001029A602A4A1268B2FBF1F202EB96
:1010C00042020192019A002AEAD0019A013AF8E715
:1010D000026C22F4E06222F0010242F480720264A7
:1010E0005A68510541BF026C22F4405242F48052CA
:1010F0000264026C12F480521CBF426C22F00602A1
:101100004264002280F83C206FF022021A60154AE7
:10111000516811F01F0F14491AD18B4206D001F506
:1011200080718B420BD15268D206BCD1986810F006
:101130004050B8D19A6842F080429A60B4E70B49B7
:101140008B42B0D1526802F01F020F2AEED9AAE7F3
:101150008B42A8D1EAE70220A6E700BF40420F0079
:10116000080000200023014000200140002201402F
:1011700090F83C30012B17D0012380F83C300368F5
:101180009A6822F001029A609B68DB0707D4036C1F
:1011900023F4885323F0010343F001030364002385
:1011A00080F83C30184670470220704703689A6800
:1011B00070B5560504460D460BD59B68D80508D575
:1011C000236C43F020032364002384F83C30012087
:1011D00070BDFFF797FE064623681A6892070CD584
:1011E0006FF012021A60226C42F4007222649A6854
:1011F00012F0405F13D0002070BD691CEDD045B9DE
:10120000236C43F004032364002384F83C30032060
:1012100070BDFFF777FE801B8542DDD2F0E7227EAE
:10122000002AE8D1DA6A12F4700F02D09B685B05DD
:10123000E1D4236C23F480732364206C10F4805079
:10124000D9D1236C43F00103236470BD0368D86CCB
:1012500070470000F7B50023019390F83C30012B54
:101260006ED00D6804688A680123092D80F83C302F
:10127000AEB22AD906EB4603E7681E3B4FF0070ED5
:101280000EFA03FE27EA0E07E760E76802FA03F3A7
:101290003B43E3604A68062A4FEA820325D8134499
:1012A000676B591F1F238B4027EA03036363626B3D
:1012B00006FA01F111436163324B9C4234D00023A2
:1012C00080F83C30184603B0F0BD276905EB4503B4
:1012D0004FF0070E0EFA03FE27EA0E072761276973
:1012E00002FA03F33B432361D4E70C2A0ED81344DC
:1012F000216BA3F123021F23934021EA03032363FD
:10130000236B06FA02F21A432263D5E71344E16A1B
:10131000413B1F229A4021EA0202E262E26A06FA97
:1013200003F11143E162C7E7122D0BD1164B5A6846
:1013300022F400025A605A6842F480025A60BEE702
:101340000220C0E7114B9D4201D0112DB7D10E4BA9
:101350005A6822F480025A605A6842F400025A60C5
:101360000A4B9D42ABD10A4B0A4A1B68B3FBF2F20F
:101370000A2353430193019B002BA0D0019B013B07
:10138000F8E700BF002001400023014012000010D8
:101390000800002040420F00074AD36823F4E063AE
:1013A0001B041B0C43F0BF63000243F4003300F442
:1013B000E0600343D360704700ED00E0174B30B5A9
:1013C000DC68C4F30224C4F10703251D042B28BFE5
:1013D0000423062D4FF0010505FA03F303F1FF3353
:1013E0008CBF033C00241940A14005FA04F4013CE1
:1013F0002240002842EA01024FEA0212ADBF00F18A
:10140000604000F00F00064B00F56140B5BFD2B25E
:10141000D2B21A5480F8002330BD00BF00ED00E0C6
:1014200014ED00E0002808DB4209012300F01F0052
:1014300003FA00F0014B43F82200704700E100E09E
:101440000138B0F1807F0AD2064B074A5860F0217C
:1014500082F823100020072298601A60704701204C
:10146000704700BF10E000E000ED00E02DE9F04F14
:1014700085B00B68DFF8C4816E4ADFF8C491019330
:1014800000230124019D9C402540AC4240F0B880DF
:101490004C6824F0100C0CF1FF36012E4FEA430E7D
:1014A00012D88768032606FA0EF627EA0607CE68E2
:1014B00006FA0EF63E4386604768C4F3001627EA34
:1014C00005079E403E4346600326C76806FA0EF6AF
:1014D000F64307EA060A8F6807FA0EF747EA0A0793
:1014E000BCF1020FC76016D14FEAD30A00EB8A0A9B
:1014F00003F0070BDAF820704FEA8B0B4FF00F0C5C
:101500000CFA0BFC27EA0C0C0F6907FA0BF747EAF9
:101510000C07CAF8207007683E4004F0030707FA7A
:101520000EFE4EEA06060660E60069D54FF0000B97
:10153000CDF80CB0D8F844703F4E47F48047C8F857
:101540004470D8F8447007F480470397039F23F052
:10155000030707F1804707F59C3703F0030CD7F822
:1015600008A04FEA8C0C4FF00F0E0EFA0CFEB042A2
:101570002AEA0E0E4BD006F58066B04249D006F539
:101580008066B04247D006F58066B04245D006F589
:101590008066B04243D0484543D006F50066B0426D
:1015A00041D006F58066B0423FD006F58066B04275
:1015B0003DD006F58066B04214BF0A26092606FA19
:1015C0000CF646EA0E06BE601668EF4314F4803F40
:1015D0000CBF3E402E431660566814F4003F0CBF0B
:1015E0003E402E435660966814F4801F0CBF3E4068
:1015F0002E439660D668A40254BF3E402E43D66068
:101600000133102B7FF43DAF05B0BDE8F08F5E468F
:10161000D5E70126D3E70226D1E70326CFE7042644
:10162000CDE70526CBE70626C9E70726C7E7082644
:10163000C5E700BF003C0140000002400038024006
:1016400000140240436931EA030308BF09048161C1
:101650007047000037B500230193184B184C1A6CE3
:1016600042F080521A641B6C03F080530193019B7B
:10167000144B01221A60FFF745FC05466368DA0344
:101680000BD5114B0E4C01221A60FFF73BFC0546AF
:1016900063689B030AD5002006E0FFF733FC401B7C
:1016A000B0F57A7FEAD9032003B030BDFFF72AFCFA
:1016B000401BB0F57A7FEBD9F5E700BF0038024058
:1016C0000070004040000E4244000E422DE9F341FC
:1016D000044608B901203FE00368DD0710D4236801
:1016E00098075AD423681A0700F19C8023685B0787
:1016F00000F1BA80A069002840F01B8100202BE097
:10170000A44B9A6802F00C02042A07D09A6802F0EF
:101710000C02082A0AD15B68590207D59D4B1B6849
:101720009A03DCD56368002BD9D1D3E76368994D60
:10173000B3F5803F13D12B6843F480332B60FFF760
:10174000E1FB944D06462B689B03C8D4FFF7DAFBF8
:10175000801B6428F7D9032002B0BDE8F081B3F5FF
:10176000A02F04D12B6843F480232B60E3E72A6881
:1017700022F480322A602A6822F480222A60002B18
:10178000DDD1FFF7BFFB06462B689F03A7D5FFF708
:10179000B9FB801B6428F7D9DDE77E4B9A6812F00D
:1017A0000C0F07D09A6802F00C02082A11D15B686E
:1017B0005E020ED4774B1A68950702D5E268012ABB
:1017C00088D11A68216922F0F80242EAC1021A603F
:1017D00088E7E268704BB2B101221A60FFF792FB12
:1017E0006C4D06462B68980707D52B68226923F0B5
:1017F000F80343EAC2032B6074E7FFF783FB801B07
:101800000228EFD9A7E71A60FFF77CFB614D064677
:101810002B6899077FF566AFFFF774FB801B0228E2
:10182000F6D998E762695D4B7AB101221A60FFF739
:1018300069FB584D06466B6F9F073FF557AFFFF7A3
:1018400061FB801B0228F6D985E71A60FFF75AFB77
:10185000504D06466B6F98077FF548AFFFF752FB78
:10186000801B0228F6D976E74A4B1A6C12F0805298
:1018700028D101921A6C42F080521A641B6C03F05A
:1018800080530193019B0126454D2B68D9051BD53B
:10189000A368404D012B27D12B6F43F001032B6729
:1018A000FFF730FB3B4D074641F288382B6F9B0713
:1018B00039D5002E3FF41EAF364A136C23F0805307
:1018C000136417E70026DFE72B6843F480732B606F
:1018D000FFF718FB07462B68DA05D9D4FFF712FB90
:1018E000C01B0228F7D936E7052B04D12B6F43F034
:1018F00004032B67D0E72A6F22F001022A672A6FC0
:1019000022F004022A67002BCAD1FFF7FBFA41F24A
:10191000883807462B6F9807CBD5FFF7F3FAC01B23
:101920004045F7D917E7FFF7EDFAC01B4045BDD991
:1019300011E7184DAB6803F00C03082B47D0194E84
:1019400000230228336035D1FFF7DCFA07462B6805
:10195000990129D4226AE3691343626A43EA821334
:10196000E26A43EA0263A26A0A4C5208013A43EA75
:1019700002436B6001233360FFF7C4FA0546236816
:101980009A013FF5BBAEFFF7BDFA401B0228F6D91E
:10199000E1E600BF0038024000004742800E4742A7
:1019A0000070004060004742FFF7ACFAC01B0228FD
:1019B000CDD9D0E6FFF7A6FA04462B689B017FF548
:1019C0009DAEFFF79FFA001B0228F6D9C3E6012857
:1019D0003FF4C2AEA868E36900F480029A427FF443
:1019E00079AE226A00F03F0393427FF473AE626ADD
:1019F00047F6C073034093427FF46CAEA26A00F4D2
:101A0000403393427FF466AEE36A00F07060C01A20
:101A100018BF0120A0E600BF134908B58B6803F08A
:101A20000C03042B03D0082B03D0104808BD10482A
:101A300008BD4A684B68496813F4800314BF0C481A
:101A40000A48C1F3881118BF002302F03F02A1FB2E
:101A50000001FFF785F8044B5B68C3F301430133D2
:101A60005B00B0FBF3F008BD003802400024F40036
:101A700000127A002DE9F0410D46044610B901200C
:101A8000BDE8F081444B1A6802F00F028A4229D364
:101A900021688F072ED4C80741D43F4B1A6802F043
:101AA0000F02954267D3226851076DD4130707D5FB
:101AB0003A4A2169936823F4604343EAC10393607F
:101AC000FFF7AAFF354B364A9B68C3F30313D35C79
:101AD000D840344B1860344B1868FFF7C9F9002020
:101AE000BDE8F081CAB21A701B6803F00F03994277
:101AF000C5D1CDE7294B11F0040F1EBF9A6842F4FF
:101B0000E0529A600E0742BF9A6842F460429A60BF
:101B10009A68A06822F0F00202439A60BBE762680C
:101B20001E4B012A1DD11B6813F4003FA7D01B4E8A
:101B3000B36823F003031343B360FFF7E3F941F203
:101B400088380746B368626803F00C03B3EB820F72
:101B5000A3D0FFF7D7F9C01B4045F3D90320BDE858
:101B6000F081911E01291B6802D813F0007FDDE788
:101B700013F0020FDAE7EAB21A701B6803F00F03E2
:101B80009D427FF47CAF8EE70449E0688B6823F4C4
:101B9000E05303438B6089E7003C02400038024079
:101BA0002837000808000020040000200368DA68D5
:101BB00042F00102DA609A6802F00702062A1EBFAC
:101BC0001A6842F001021A6000207047704770479F
:101BD0007047704703681A69910710B504460ED51F
:101BE000DA6892070BD56FF002021A619B69012235
:101BF0009B07027777D0FFF7EAFF0023237723685C
:101C00001A69500710D5DA6851070DD56FF0040234
:101C10001A619B69022213F4407F2277204668D024
:101C2000FFF7D5FF0023237723681A6912070FD522
:101C3000DA6810070CD56FF008021A61DB6904221C
:101C40009907227720465AD0FFF7C1FF0023237758
:101C500023681A69D20610D5DA68D0060DD56FF060
:101C600010021A61DB69082213F4407F22772046B4
:101C70004BD0FFF7ACFF0023237723681A69D10705
:101C800008D5DA68D20705D56FF001021A6120463F
:101C900000F04AFA23681A69100608D5DA681106B6
:101CA00005D56FF080021A61204600F0F8F823682D
:101CB0001A69520608D5DA68500605D56FF0400259
:101CC0001A612046FFF785FF23681A69910622D51D
:101CD000DA6892061FD56FF0200220461A61BDE82F
:101CE000104000F0DBB8FFF771FF2046FFF770FFF0
:101CF00083E7FFF76BFF2046FFF76AFF92E7FFF7E6
:101D000065FF2046FFF764FFA0E7FFF75FFF20466F
:101D1000FFF75EFFAFE710BD304A0368904212D074
:101D2000B0F1804F0FD0A2F57C4290420BD002F56B
:101D30008062904207D002F58062904203D002F5A3
:101D40007842904219D14A6823F070031343234A22
:101D5000904229D0B0F1804F26D0A2F57C4290422B
:101D600022D002F5806290421ED002F5806290423D
:101D70001AD002F57842904216D0194A904213D0F8
:101D800002F5806290420FD002F5806290420BD043
:101D9000A2F59832904207D002F58062904203D0BB
:101DA00002F58062904203D1CA6823F44073134362
:101DB0004A6923F08003134303608B68C3620B6896
:101DC0008362064B984203D003F58063984201D1A9
:101DD0000B69036301234361704700BF00000140AA
:101DE0000040014010B50446A0B190F83D3003F02A
:101DF000FF021BB980F83C2000F04EFB022384F860
:101E00003D302068211DFFF787FF012384F83D3016
:101E1000002010BD012010BD90F83C30012B30B5E2
:101E20004FF0020335D080F83D3003680D685C68E0
:101E300024F0700401222C4380F83C209A685C60F6
:101E4000154CA3421AD0B3F1804F17D0A4F57C44AF
:101E5000A34213D004F58064A3420FD004F580643C
:101E6000A3420BD004F57844A34207D004F5705484
:101E7000A34203D0A4F59434A34204D1496822F0CC
:101E800080020A439A60012380F83D30002380F8E5
:101E90003C30184630BD00BF00000140704770471D
:101EA00070B5184E184C03097361636923F002037F
:101EB000054663610120FFF72BF8636943F00103D6
:101EC00063610120FFF724F8636923F00103636174
:101ED000022005F00F05FFF71BF87561636923F019
:101EE000020363610120FFF713F8636943F0010304
:101EF00063610120FFF70CF8636923F0010363615C
:101F000070BD00BF000C02400010024008B51A4B23
:101F10005A6922F001025A615A6922F002025A619A
:101F20000520FEF7F5FF0320FFF7BAFF0520FEF7B7
:101F3000EFFF0320FFF7B4FF0520FEF7E9FF0320C2
:101F4000FFF7AEFF0520FEF7E3FF0220FFF7A8FF33
:101F50002820FFF7A5FF0820FFF7A2FF0F20FFF7BB
:101F60009FFF0620FFF79CFF8020FFF799FF0120CD
:101F7000BDE80840FFF794BF0010024070B51A4E4C
:101F80001A4C03097361636943F0020363610546F8
:101F90000120FEF7BDFF636943F001036361012087
:101FA000FEF7B6FF636923F001036361022005F0C9
:101FB0000F05FEF7ADFF7561636943F002036361CE
:101FC0000120FEF7A5FF636943F00103636101206F
:101FD000FEF79EFF636923F0010363610220BDE801
:101FE0007040FEF795BF00BF000C02400010024099
:101FF00008B50120FFF754FF0220FEF789FF0220F9
:10200000FFF74EFF0220BDE80840FEF781BF02291E
:1020100010B5044607D1C020FFF742FF013C14F879
:10202000010F20B910BD0129FCD18020F4E7FFF792
:10203000A5FFF4E710B50139014403461A1A0C1A3A
:10204000A24200DB10BD1A780C7803F8014B01F8AE
:102050000129F3E738B50D460B460A215C1B58B938
:102060002B193021944210DB28462146FFF7E2FF6E
:1020700000232B55204638BD90FBF1F401FB1400E2
:10208000303003F8010B2046E8E7013403F8011B68
:10209000E8E700000000000070B52DED028BBDEEFA
:1020A000C08A82B004460E460022014618EE100A8D
:1020B000F0EE408AFFF7CEFF05466EB32E23235481
:1020C0003046FEF7E7F99FED160B41EC110B00F0DF
:1020D000B5FAB8EEC88A53EC102B78EEC87ACDE981
:1020E000002317EE900AFEF7E7F9DDE90023FEF77B
:1020F00037FAFEF7E5FC07EE900AFDEEE77A0135C8
:102100002C4417EE900A3246214602B0BDEC028BF9
:10211000BDE87040FFF79EBF02B0BDEC028B70BD02
:10212000000000000000244038B5134C1348144D43
:102130004FF48041FFF786FA2046FEF7A3FF012106
:102140002046FFF733F82046FFF780F82880204626
:10215000FFF70EF82B889FED0B7ADFED0B6A07EE89
:10216000903AF8EEE77A094B67EE877A87EEA67A1F
:1021700083ED007A38BD00BFE40000200018024063
:102180009400002048E13A4000F07F45D001002053
:1021900030B595B03022002108A800F047FA0021A0
:1021A000142203A800F042FA00241D4B01941A6C7B
:1021B00042F080521A641B6C03F080530193019B20
:1021C000184B02941A6842F440421A601B6803F4E8
:1021D00040430293029B012308934FF480330993F9
:1021E0004FF48003B42202250F9308A80423109310
:1021F000119213930E951295FFF768FAFFF72AFADA
:102200000F2303934FF4A053069305214FF48053FB
:1022100003A8049505940793FFF72CFC15B030BD77
:102220000038024000700040BFB5574E574DDFF8F0
:102230008C810024FEF740FEFFF7AAFF00F05AF958
:1022400000F066F90094336B43F080033363336B23
:1022500003F080030093009B0194336B43F004036D
:102260003363336B03F0040310222146019302A869
:10227000019B00F0DBF9464BAC6001274FF480393D
:10228000284685E808022C612C7685F82040EC620F
:10229000EC6085F83040C5F82880EF616F61FEF78B
:1022A0004BFE0A2302A9284602933A4D0494039751
:1022B000FEF7D0FF1022214602A800F0B7F9364BF6
:1022C000AC60284685E808022C612C7685F8204011
:1022D000EC62EC6085F83040C5F82880EF616F61F2
:1022E000FEF72AFE0B2302A9284602932B4D0494E5
:1022F0000397FEF7AFFF2A4A2A4BAC6085E80C0033
:1023000028460323EB60AC6102940394FFF76AFD57
:1023100002A92023284602930394FFF77DFD336B27
:10232000214A224C43F040033363136843F0805347
:102330001360336B43F010033363336B43F00803D4
:1023400033631B4B1B4E05221A60A3F58063552295
:102350001A60FFF7DBFDFFF74BFE2846FFF726FC70
:10236000154D96ED000A20460421FFF795FE2846FC
:102370000121FFF74CFE20460221FFF748FE4FF4F3
:102380007A70FEF7C5FDECE700380240E40000205B
:102390000020014098000020002101402C01002075
:1023A00000100040905F0100001802406C01002006
:1023B00000100240D0010020203700080100000F6B
:1023C00082B00C4B002100915A6C42F480425A6456
:1023D0005A6C02F480420092009A01911A6C42F009
:1023E00080521A641B6C03F080530193019B02B06E
:1023F000704700BF0038024010B514228AB004466E
:1024000000210DEB020000F011F923681E4A9342EF
:102410001FD11E4B002101915A6C42F480725A6404
:102420005A6C02F480720192019A02911A6B42F086
:1024300004021A631B6B03F004030293029B012343
:10244000059305A9032312480693FFF70FF80AB076
:1024500010BD104A9342FAD10C4B002103915A6CE3
:1024600042F400725A645A6C02F400720392039AA6
:1024700004911A6B42F004021A631B6B03F004030D
:102480000493049B0223DBE7002001400038024054
:10249000000802400021014007B50D4B02689A4236
:1024A00013D1002203F50A330192196C41F0100197
:1024B00019641B6C03F01003019336201146019B35
:1024C000FEF77CFF3620FEF7ADFF03B05DF804FB9E
:1024D000001000407047FEE7FEE7FEE7FEE77047AA
:1024E00070477047FEF702BD0148FFF773BB00BF9E
:1024F0002C010020054BD3F8882042F47002C3F869
:1025000088204FF000629A60704700BF00ED00E045
:10251000174A1849936803F00C03042B10B50DD02B
:10252000082B0DD0144B0B60114B144A9B68C3F35E
:102530000313D25C0B68D3400B6010BD104BF2E765
:102540005468506852686302C2F3881200F03F007A
:102550004CBF0B4B084BB3FBF0F35343044A526898
:10256000C2F3014201325200B3FBF2F3DBE700BFDA
:1025700000380240080000200024F400283700083A
:1025800000127A00DFF834D0002103E00C4B5B58D6
:10259000435004310B480C4B42189A42F6D30B4A75
:1025A00002E0002342F8043B094B9A42F9D3FFF7BB
:1025B000A1FF00F017F8FFF737FE70470000032077
:1025C00090370008000000207400002074000020F4
:1025D000D4010020FEE70000014B1868704700BFDF
:1025E0000C00002070B50D4E0D4CA41BA41000254E
:1025F000A54209D10B4E0C4C01F086F8A41BA41087
:102600000025A54205D170BD56F825309847013503
:10261000EEE756F8253098470135F2E7883700088D
:1026200088370008883700088C37000802440346C2
:10263000934200D1704703F8011BF9E72DE9F04FF1
:102640002DED048B8DB057EC106B55EC114B00F059
:102650006FF9AE4BB0EE408AF0EE608A93F90090CD
:10266000B9F1FF3F98465FD022462B4620462946C7
:10267000FEF710FA8346002856D132463B463046D4
:102680003946FEF707FA0190E8B100220023204600
:102690002946FEF7CDF9002846D0012302939C4B32
:1026A00003939C4BCDF828B00022B9F1020FCDE97D
:1026B0000467CDE90645CDE9082333D002A800F030
:1026C00008FF48BB5EE04FF0000A4FF0000B524697
:1026D0005B4630463946FEF7ABF94BEC19AB0028A8
:1026E00055D052465B4620462946FEF7A1F9804662
:1026F00018B301230293864B0393019B0A93CDE900
:102700000467CDE90645CDE908ABB9F1000FD5D096
:10271000804B0022CDE908230A9B1BB1FFF75CFF29
:102720000A9B03609DED088BB0EE480AF0EE680A44
:102730000DB0BDEC048BBDE8F08F45EC104B00F004
:10274000C0FE0028F0D052465B4620462946FEF7E0
:1027500079F90028E8D0012302936D4B03936B4B6A
:10276000CDF8288093F90030CDE90467CDE906451E
:1027700013B9CDE908ABA1E767490020CDE908010D
:10278000022B9BD1FFF728FF21230360C4E7B0EEA3
:10279000480AF0EE680A00F094FE0190002840F02C
:1027A0008A8047EC106B00F08CFE002800F08380DC
:1027B00045EC104B00F085FE00287CD053EC182B24
:1027C00018EE100A1946FEF765F998F90090504B7B
:1027D000B0B101220393019B02920A93CDE90467F1
:1027E000CDE90645B9F1000FC3D052465B465046CD
:1027F0005946FDF7DFFFB9F1020FCDE90801C0E747
:102800000322029203930A90CDE90467CDE90645BD
:10281000B9F1000F2CD1414B4FF06042CDE90823B4
:10282000304652465B463946FEF70CF9002866D022
:1028300000223B4B20462946FDF792FE04460D46FA
:1028400045EC104B00F050FE204653EC102B29466F
:10285000FEF7EEF820B9334B4FF06042CDE9082384
:1028600098F90030022B4AD1FFF7B6FE22238CE7FD
:102870002D4B0022CDE90823304652465B463946AF
:10288000FEF7E0F80028EBD00022254B2046294631
:10289000FDF766FE04460D4645EC104B00F024FEA5
:1028A000204653EC102B2946FEF7C2F80028D7D15A
:1028B0000022194BD2E70022002351EC180BFEF73F
:1028C000B7F800283FF430AF47EC106B00F0F9FD8B
:1028D00000283FF429AF45EC104B00F0F2FD002832
:1028E0003FF422AF04230293094B039300230A937E
:1028F000CDE90467CDE906458DED089BB0E702A858
:1029000000F0E7FD00287FF407AFADE7700000207E
:10291000383700080000F03F0000F0FFFFFFEF47EE
:102920000000E03FFFFFEFC70000F07F0000000065
:102930002DE9F04F91B08DED001B9DE8040257EC9E
:10294000106B29F0004858EA020310EE10AA3D4629
:1029500000F0BD84784B27F000449C4209DC03D191
:102960003EB9A0450DDC01E0984502DC98450ED14A
:102970006AB104F1404404F5801454EA0A0300F0FB
:10298000A6846E4811B0BDE8F04F00F0A5BD002D43
:1029900053DA6B4B98454DDCA3F1547398454CDDED
:1029A0004FEA2853A3F2FF33142B26DDC3F134037F
:1029B00022FA03F101FA03F39A423ED101F0010138
:1029C000C1F1020B002A5BD15B4B984524D104F185
:1029D000404303F5801353EA0A0300F07884594B0F
:1029E0009C422DDDB9F1000F80F27584002000219A
:1029F00041EC100B11B0BDE8F08F002A3ED1C3F1BD
:102A0000140348FA03F101FA03F3984540F06B848C
:102A100001F00101C1F1020B4B4B984518D1B9F1FE
:102A2000000F80F25C84484932463B460020FDF7A7
:102A3000C1FEDDE74FF0020BC4E74FF0000BC1E72A
:102A4000B9F1000FD2DA9DE8090003F10041CFE7A8
:102A5000B9F1804F06D132463B4610461946FDF784
:102A60007FFDC5E7394B99450AD1002D08DB47ECBE
:102A7000106B11B0BDE8F04F00F06CBC4FF0000BD4
:102A800047EC106B00F016FD51EC100BBAF1000F83
:102A900027D124B12C4B25F040429A4221D1B9F1E3
:102AA000000F05DA02460B4600202749FDF782FE9B
:102AB000002D9DDA04F1404404F5801454EA0B0320
:102AC00008D102460B4610461946FDF795FB024613
:102AD0000B46ACE7BBF1010F8AD101F10043194667
:102AE00086E7ED0F6B1E0D935BEA030302D13246BE
:102AF0003B46E8E7164B984540F3FE8003F104732C
:102B000098450ADD0F4B9C420DDCB9F1000FBFF672
:102B10006DAF07A3D3E900239FE70E4B9C42F4DD82
:102B2000094B9C4218DDB9F1000FF2DC5EE700BFF3
:102B30009C7500883CE4377E0000F07F2737000852
:102B4000FFFF3F43FFFFEF3F0000F03F0000E03F8B
:102B50000000E041FEFFEF3F0022634BFDF74CFB1E
:102B600055A3D3E9002304460D46FDF7F9FC54A311
:102B7000D3E9002306460F4620462946FDF7F0FC20
:102B80000022CDE90201594B20462946FDF7E8FC19
:102B900002460B464CA1D1E90001FDF72DFB224670
:102BA0002B46FDF7DDFC02460B4600205049FDF7A1
:102BB00023FB22462B468046894620462946FDF7C0
:102BC000CFFC02460B4640464946FDF7C9FC40A3F0
:102BD000D3E90023FDF7C4FC02460B46DDE9020100
:102BE000FDF70AFB02460B4604460D4630463946C1
:102BF000FDF704FB0020CDE9040132463B46FDF71A
:102C0000FBFA02460B4620462946FDF7F5FA0D9AD7
:102C10000BF1FF33134306460F4640F0EB819FED67
:102C20002E7BDDE90045002422462B46DDE900012C
:102C30008DED027BFDF7E0FADDE90423FDF790FC62
:102C4000DDE900238046894630463946FDF788FC99
:102C500002460B4640464946FDF7D0FA22462B462F
:102C600080468946DDE90401FDF77AFC0B460446FF
:102C70000D46024649464046CDE90045FDF7BEFAFD
:102C80001C4B994206460F468B4640F3F78201F1F2
:102C90003F4303F5E003034300F0EA8110A3D3E9C7
:102CA0000023DDE90201FDF75BFC0DA3D3E900235E
:102CB000D5E600BFAFF30080000000604715F73F86
:102CC00044DF5DF80BAE543E555555555555D53F2F
:102CD000FE822B654715F73F000000000000F0BFA3
:102CE0009C7500883CE4377E0000F03F0000D03F38
:102CF0000000E03FFFFF8F40B4F5801F4FF000025F
:102D000005DAD34BFDF72CFC6FF034020C4623158B
:102D1000A3F2FF3313440793CE4BC4F3130444F0E0
:102D20007F559C4245F4401508DDCB4B9C4240F357
:102D30005E81079B01330793A5F580154FF0000ACC
:102D40004FEACA030C930C9AC44B134493ED007BD7
:102D5000294653EC172B8DED0A7BCDE90801FDF7D1
:102D60004BFADDE90A2306460F46DDE90801FDF7C7
:102D700045FA02460B460020B949FDF71BFDCDE997
:102D80000E0102460B4630463946FDF7E9FBCDE918
:102D90000401DDE90434CDE9023400230293DDE9C6
:102DA00002896D1045F0005505F50025002205EB60
:102DB0008A434046494614461D46FDF7D1FB02466C
:102DC0000B4630463946FDF717FADDE90A23064679
:102DD0000F4620462946FDF70FFA02460B46DDE96D
:102DE0000801FDF709FA42464B46FDF7B9FB0246DA
:102DF0000B4630463946FDF7FFF9DDE90E23FDF7B6
:102E0000AFFBDDE90423CDE9080110461946FDF7C3
:102E1000A7FB7BA3D3E9002304460D46FDF7A0FBE7
:102E200079A3D3E90023FDF7E9F922462B46FDF704
:102E300097FB77A3D3E90023FDF7E0F922462B4661
:102E4000FDF78EFB74A3D3E90023FDF7D7F92246E3
:102E50002B46FDF785FB72A3D3E90023FDF7CEF9DE
:102E600022462B46FDF77CFB6FA3D3E90023FDF739
:102E7000C5F9224606460F462B4620462946FDF751
:102E80006FFB02460B4630463946FDF769FB42466A
:102E900004460D464B46DDE90401FDF7AFF9DDE9D7
:102EA0000823FDF75DFB22462B46FDF7A7F94246B6
:102EB00006460F464B4640464946FDF751FB002269
:102EC000684BCDE90A01FDF799F932463B46FDF71B
:102ED00095F902980D46044602460B46404649467F
:102EE000FDF73EFB0022804689465E4B2046294680
:102EF000FDF782F9DDE90A23FDF77EF902460B466C
:102F000030463946FDF778F9DDE90423FDF728FB63
:102F1000224606460F462B46DDE90801FDF720FB59
:102F200002460B4630463946FDF768F906460F461D
:102F300002460B4640464946FDF760F902983CA31D
:102F4000D3E9002304460D46FDF70AFB4246CDE9CE
:102F500008014B4620462946FDF74EF902460B462E
:102F600030463946FDF748F933A3D3E90023FDF78E
:102F7000F7FA33A3D3E9002306460F462046294635
:102F8000FDF7EEFA02460B4630463946FDF736F9B4
:102F90000C9A354B1344D3E90023FDF72FF904466F
:102FA00007980D46FDF776FA0C9A304B1344D3E997
:102FB000008906460F4622462B46DDE90801FDF74B
:102FC0001DF942464B46FDF719F932463B46FDF7DF
:102FD00015F9029832463B46CDE90401FDF70CF99C
:102FE00042464B46FDF708F9DDE9082307E64FF0B6
:102FF000010AA5E69FED147B13E600BFAFF3008046
:10300000EF4E454A287ECA3F65DBC9934A86CD3FCD
:1030100001411DA96074D13F4D268F515555D53FB3
:10302000FFAB6FDBB66DDB3F033333333333E33F4B
:10303000000000E009C7EE3FFD033ADC09C7EE3FA0
:10304000F5015B14E02F3EBE000000000000F03FE1
:10305000000040438E98030079B60B00403700080B
:103060000000F03F000008406037000850370008BB
:10307000B6A3D3E9002340464946FDF7BFF82246F0
:10308000CDE904012B4630463946FDF7B5F8024636
:103090000B46DDE90401FDF7F3FC00287FF4FEADEB
:1030A000A54A2BF00043934240F30C811B154FF4CB
:1030B000801AA3F2FE334AFA03F35B44C3F30A52C5
:1030C0009E4EA2F2FF321641C3F3130A002023EAF8
:1030D0000601C2F114024AF4801A4AFA02FABBF15C
:1030E000000F02460B4620462946B8BFCAF1000A27
:1030F000FDF782F8CDE9000142464B46DDE90001CB
:10310000FDF77CF800207AA3D3E9002304460D469E
:10311000FDF726FADDE9002306460F46204629463C
:10312000FDF76AF802460B4640464946FDF764F84B
:1031300071A3D3E90023FDF713FA71A3D3E90023A8
:103140008046894620462946FDF70AFA02460B4684
:1031500040464946FDF752F804460D4602460B46E6
:1031600030463946FDF74AF832463B4680468946A6
:10317000FDF742F802460B4620462946FDF73CF88B
:10318000424606460F464B4640464946FDF7E8F99B
:103190005DA3D3E9002304460D46FDF7E1F95CA3E6
:1031A000D3E90023FDF728F822462B46FDF7D8F98E
:1031B00059A3D3E90023FDF721F822462B46FDF75A
:1031C000CFF957A3D3E90023FDF716F822462B4683
:1031D000FDF7C6F954A3D3E90023FDF70FF8224603
:1031E0002B46FDF7BDF902460B4640464946FDF722
:1031F00003F804460D4602460B4640464946FDF795
:10320000AFF90022CDE900014FF080432046294666
:10321000FCF7F2FF02460B46DDE90001FDF7CAFAB2
:10322000324604460D463B4640464946FDF798F96E
:1032300032463B46FCF7E2FF02460B462046294653
:10324000FCF7DAFF42464B46FCF7D6FF02460B4638
:1032500000203B49FCF7D0FF01EB0A54B4F5801F76
:1032600002460B4631DA504643EC102B00F0C4F90D
:1032700051EC100BDDE90223FFF7F1BB314B21F0DC
:1032800000469E427FF70CAF2F4B0B4403430BD0FD
:1032900027A3D3E90023DDE90201FDF761F924A3A7
:1032A000D3E90023FFF7DBBB22462B46FCF7A4FF44
:1032B00002460B4640464946FDF7CEFB00283FF448
:1032C000EFAEE5E74FF0000A16E72146D2E700200F
:1032D0001B49FFF78DBBDDE90001FFF789BB3046D5
:1032E0003946FFF785BB9346FFF796BBAFF30080E7
:1032F00000000000432EE63FEF39FAFE422EE63F83
:10330000396CA80C615C20BED0A4BE726937663EE1
:10331000F16BD2C541BDBB3E2CDE25AF6A56113FD5
:1033200093BDBE166CC1663F3E5555555555C53FBC
:1033300059F3F8C21F6EA5010000E03FFFFF0F0028
:103340000000F03FFFCB904000346F3FFE822B65C2
:103350004715973C2DE9F04155EC104B544EAE43C8
:1033600010EE100A2B462A46214613D110EE102AE1
:103370002B4610EE100A2946FDF7F2F802460B46DE
:1033800020462946FCF73AFF04460D4645EC104B13
:10339000BDE8F081002D10DC25F000463043F5D06B
:1033A0005DB110EE102A2B4620462946FCF724FF7B
:1033B00002460B46FDF7FEF9E6E71B150CD1002A85
:1033C0006DD00020D6026ED5441E1B1BC0F1200418
:1033D00021FA04F422438140A3F2FF33C2F3130223
:1033E000DD0742F4801242BF520002EBD172490065
:1033F0005810002502EBD1731A44490016232C46BD
:103400004FF40016A7199742DEBFD21BBC19AD19A5
:103410005200013B02EBD1724FEA56064FEA4101DE
:10342000F0D14FF0200E9C464FF00046A24206EB32
:103430000C0702DC12D18F4210D8002F07EB060CCC
:1034400034DABCF1000F31DB04F10108121B8F42AA
:1034500088BF02F1FF32C91B3344444602EBD177E7
:10346000BEF1010E3A444FEA41014FEA5606DDD162
:103470000A4306D05C1C13BF01330135734623F0A9
:1034800001036A105B08E90702F17F5202F500129E
:1034900048BF43F0004302EB00551C4676E7CA0ADA
:1034A000153B49058BE7520001308BE7A046CDE77D
:1034B0000000F07F53EC102B23F0004343EC102B63
:1034C000704710EE903A43F0004000F58010C00FB6
:1034D00070470020704700009FED010B704700BF50
:1034E000000000000000F87FF7B551EC100BC1F3AD
:1034F0000A54A4F2FF36132E10EE107A0B46024641
:103500004FEAD17558DC002E2BDA21F0004202433D
:1035100023D0C1F31302024351421143090B5B0C48
:1035200001F400215B0441EA0307314B03EBC503BF
:103530003946D3E9006710EE100A32463B46FCF7E5
:103540005DFECDE900013B463246DDE90001FCF7B6
:1035500053FE21F0004343EAC57141EC100B03B068
:10356000F0BD244C344101EA04070743F5D061085B
:1035700003EA010002430BD023EA01014FF4802348
:10358000132E43FA06F30CBF4FF0004200220B4308
:103590001946174B03EBC505D5E9004510462B46E8
:1035A0002246FCF72BFECDE9000122462B46DDE941
:1035B0000001FCF721FED0E7332E08DDB6F5806F61
:1035C000CBD110EE102A0B46FCF718FEC5E7A4F28B
:1035D00013464FF0FF34F4402042BED061080F4242
:1035E0001FBF4FF0804227EA010132410A43CFE773
:1035F00070370008FFFF0F0070B555EC104BC5F396
:103600000A5206462B46B2B925F0004323433CD06C
:103610000022334B294610EE100AFCF7A1FF314A75
:10362000964204460D460B4613DA29A3D3E900233C
:10363000FCF796FF0AE040F2FF718A420CD110EECF
:10364000102A2B4620462946FCF7D8FD04460D4695
:103650001BE0C1F30A52363A324440F2FE718A420C
:103660000BDD45EC114B9FED1C0B00F03FF81AA34E
:10367000D3E9002351EC100BDAE7002A08DD23F030
:10368000FF4323F4E00343EA025545EC104B70BDC1
:1036900012F1350F0DDA4CF250339E4245EC114BCE
:1036A000E1DC9FED0B0B00F021F809A3D3E9002327
:1036B000E0E723F0FF43363223F4E00343EA025508
:1036C000204629460022084BB2E700BFAFF3008036
:1036D00059F3F8C21F6EA5019C7500883CE4377E43
:1036E00000005043B03CFFFF0000903C53EC102B17
:1036F00011EE900A23F0004100F0004041EA00037F
:1037000043EC102B70470000F8B500BFF8BC08BCB4
:103710009E467047F8B500BFF8BC08BC9E4670478F
:10372000566F6C74616765000000000000000000C7
:103730000102030406070809706F7700000000000B
:10374000000000000000F03F000000000000F83F13
:1037500000000000000000000000004003B8E23F4D
:10376000000000000000000006D0CF43EBFD4C3EFF
:10377000000000000000304300000000000030C3E3
:0837800010D4FF7F01000000DE
:04378800D50100085F
:04378C00B10100087F
:1037900001000000100000000024F40010000020D0
:1037A0000000000000000000000000000000000019
:1037B0000000000000000000000000000000000009
:1037C00000000000000000000000000000000000F9
:1037D00000000000000000000000000000000000E9
:1037E00000000000000000000000000000000000D9
:1037F00000000000000000000000000000000000C9
:0438000001000000C3
:040000050800258545
:00000001FF
